:020000040800F2
:10000000E0EB0520E902000809610008932E0008D2
:1000100005610008C9120008516C000800000000CA
:100020000000000000000000000000006562000801
:10003000791300080000000045610008396A0008D3
:100040000303000803030008030300080303000878
:1000500003030008030300087B13000803030008E0
:10006000911300089B130008030300080303000812
:100070000303000803030008030300080303000848
:100080000303000803030008030300080303000838
:100090000303000803030008030300080303000828
:1000A0000303000803030008030300080303000818
:1000B00003030008A56A00080303000803030008FF
:1000C00003030008030300080303000803030008F8
:1000D00003030008016C0008030300080303000881
:1000E0008513000803030008030300080303000846
:1000F00003030008030300080303000803030008C8
:1001000003030008030300080303000803030008B7
:1001100003030008030300080303000803030008A7
:100120000303000803030008030300080303000897
:100130000303000803030008030300080303000887
:100140000303000803030008030300080303000877
:100150000303000803030008030300080303000867
:100160000303000803030008030300080303000857
:100170000303000803030008030300080000000055
:100180000303000803030008030300080303000837
:100190000303000803030008030300080303000827
:1001A0000303000803030008030300080303000817
:1001B0000303000803030008030300080303000807
:1001C0000303000803030008000000000303000805
:1001D00003030008030300080303000803030008E7
:1001E00003030008030300080303000803030008D7
:1001F000030300080303000800F002F800F065F8AC
:100200000AA090E8000C82448344AAF10107DA4571
:1002100001D100F05AF8AFF2090EBAE80F0013F05E
:10022000010F18BFFB1A43F001031847E454010003
:100230000455010010F8013B0A4413F0030408BF01
:1002400010F8014B1D1108BF10F8015B641E05D0AA
:1002500010F8016B641E01F8016BF9D1002D15D067
:1002600010F8014B03F00C030C2BA1EB04040ABFA4
:1002700010F8013BA4EB8314A4EB032405F1010364
:1002800014F8016B5B1E01F8016BF9D5914238BF80
:1002900010F8013BD1D3704700230024002500262D
:1002A000103A28BF78C1FBD8520728BF30C148BFD9
:1002B0000B607047782900F09785002070471FB5C4
:1002C00008F066F81FBD10B510BD00F07FFE1146A6
:1002D000FFF7F5FF07F016FE00F09DFE03B4FFF7F1
:1002E000F2FF03BC07F094FC094880470948004727
:1002F000FEE7FEE7FEE7FEE7FEE7FEE7FEE7FEE7D6
:10030000FEE7FEE704480549054A064B7047000032
:10031000416A0008F9010008E0A90520E0EB05208A
:10032000E0AB0520E0AB05209FED3E0A5FEA920CB2
:1003300059D000BFD0ED000A90ED011A0B1D60EE00
:10034000A00A083041EE010AF5EEC00AF1EE10FAFB
:10035000A6BFB1EEE01A81ED001A81ED000AD0EDE2
:10036000000A90ED011A00F1080160EEA00A181DC4
:1003700041EE010AF5EEC00AF1EE10FAA6BFB1EEA9
:10038000E01A83ED001A83ED000AD1ED000A91ED29
:10039000011A031D60EEA00A083141EE010AF5EED4
:1003A000C00AF1EE10FAA6BFB1EEE01A80ED001A15
:1003B00080ED000AD1ED000A91ED011A081D60EEF2
:1003C000A00A191D001D41EE010AF5EEC00AF1EE6A
:1003D00010FAA6BFB1EEE01A83ED001A83ED000A11
:1003E000BCF1010CA6D112F0030208BF704700BF98
:1003F000D0ED000A90ED011A08300B4660EEA00A1D
:10040000091D41EE010AF5EEC00AF1EE10FAA6BF91
:10041000B1EEE01A83ED001A83ED000A521EE7D117
:1004200070470000000000002DE9F04F00264FEA61
:10043000910C35462DED048B82B06446CDF804C096
:1004400006EB0C0909EB0C0808EB0C0700EBC60ADD
:1004500000EBC808DAED000A98ED001A00EBC909B4
:1004600000EBC70730EE810A70EEC12A9AED013A1F
:10047000D8ED014AD9ED011AD7ED013A99ED005AAC
:1004800097ED002A73EE240A31EEA34A35EE021AE4
:1004900033EE643A71EEE34A4FEA450B35EE422AF9
:1004A0000BEB050E30EE015A02EBCB0B70EE845ACB
:1004B000DBED001ADBED013A30EE410A70EEC40AC2
:1004C0008AED005ACAED015A32EEA41A32EEE44A1D
:1004D00002EBC50A73EE422A20EE216A60EEA11AF1
:1004E00032EE033ADAED004A60EEA30A9AED012AF1
:1004F00060EE233A21EE240A62EEA44A02EBCE0B10
:1005000062EE822A61EE026A9BED005ADBED015A2F
:1005100030EE220A23EE052A74EEE62A24EE051AAE
:1005200023EE253A76EE204A24EE254A71EEE31AB0
:10053000C9ED004A71EE030AC9ED011A32EE441A00
:1005400088ED000AC8ED012AC7ED000A641E87ED98
:10055000011A06F101061D447FF472AF019C4FF6AB
:10056000FF7505EA830B0094042C7CD90027E04634
:100570004FEA9C0CBA46ACF1010E7D00EC1902EB7F
:10058000C70302EBC50502EBC40493ED005A93EDDB
:10059000014AD5ED002AD5ED015AD4ED004AD4ED3B
:1005A000013A5F444FEA0A0303EB0C0505EB0C0428
:1005B00004EB0C0900EBC30600EBC40496ED001A33
:1005C00094ED002A00EBC50500EBC90996ED013A50
:1005D00094ED016AD5ED007A99ED007A71EE421A38
:1005E00031EE022A33EE461A33EE066A37EE873AC8
:1005F00095ED010AD9ED010A77EEC76A72EE437AEA
:1006000030EE607A30EE200A72EE038A434471EED7
:10061000870A31EEC77A71EE661A36EE811A76EEE7
:10062000406A76EE009A21EE852A20EE850A61EE78
:10063000841A20EE846A67EEA20A26EEA23A27EE1A
:10064000249A21EE248AC6ED008A8B4266EEA56AC2
:1006500067EEA57A21EE231A27EE237AC6ED019ADA
:1006600030EE210A00E026E072EE461A70EEA60A8D
:1006700033EE672A39EE011AC5ED000A85ED012A2D
:1006800038EE473A84ED000AC4ED011A89ED001AEC
:1006900089ED013A88D30AF1010AF2457FF66DAF80
:1006A000009B9B080093009C4FF6FF7303EA8B0BA3
:1006B000042C3FF65BAF0199D0ED002A90ED041AAF
:1006C000D0ED010A90ED054A72EE811AD0ED023AA2
:1006D00090ED063A72EEC12A30EE841A90ED030ACC
:1006E00090ED072A70EEC40A33EE834A73EEC33AE4
:1006F00030EE023A30EE420A31EE842A71EEC44AFC
:1007000071EE031A31EE433A80ED002A32EE801A80
:10071000C0ED011A30EEE34AC0ED024A72EEC02A83
:1007200080ED033A33EEA00A80ED041A80ED054A0D
:10073000C0ED062A80ED070A491E00F12000BBD15A
:1007400002B0BDEC048BBDE8F08F2DE9F04F002620
:100750004FEA910C35462DED068B82B06446CDF8FC
:1007600004C000BF06EB0C0808EB0C0909EB0C07F2
:1007700000EBC80800EBC70700EBC60A00EBC9098D
:10078000DAED000A99ED001ADAED015A99ED013A15
:1007900030EE815A98ED002AD8ED013A30EEC11AB8
:1007A000D7ED002AD7ED014A75EE830A72EE221AC0
:1007B00033EEA44A4FEA450B35EEC33A0BEB050E78
:1007C00072EE622A73EEE44A02EBCB0B30EE846ADF
:1007D00075EE215A9BED002ADBED013A30EEC44A5A
:1007E00075EE611ACAED005A8AED016A71EE640A6B
:1007F00061EE826A24EE022A31EE241A24EE234AA4
:1008000073EE224A02EBC50A61EEA33A33EE623A76
:10081000DAED002ADAED015A02EBCE0B60EEA21AF5
:1008200064EEA22A64EEA54A9BED005A9BED016A94
:1008300060EEA55A61EE050A23EE055A23EE063A4C
:1008400036EEC44A21EE061A32EE232A71EEE41A7D
:1008500072EEA52A88ED004A70EEC30A88ED012ADF
:1008600035EE011AC9ED001AC9ED012AC7ED000ADB
:10087000641E87ED011A06F101061D447FF472AF74
:10088000019C4FF6FF7505EA830B0094042C7CD97C
:100890000027E0464FEA9C0CBA46ACF1010E7D0001
:1008A000EC1902EBC70302EBC50502EBC404D3ED60
:1008B000005A93ED015A95ED002AD5ED014AD4ED89
:1008C000002A94ED016A5F444FEA0A0303EB0C052A
:1008D00005EB0C0404EB0C0900EBC30600EBC404AD
:1008E00096ED007A94ED001A96ED014A94ED013AE6
:1008F00000EBC50500EBC90977EE413AD5ED001ACA
:10090000D9ED007A37EE011A34EE437A34EE033A29
:1009100031EEE74AD5ED010AD9ED016A71EEA71A69
:1009200037EE448A70EEE67A70EEA66A71EE218A9E
:1009300028EE229A73EEE70A73EEA77A77EE043A6E
:1009400033EE26AA31EE617A33EE664A20EEA51A1E
:1009500023EE853A63EEA51A60EE856A67EE020A19
:1009600064EE023A67EEA29AC6ED008A43448B42D7
:1009700024EE244A27EE247A28EE068A67EE867A49
:1009800086ED01AA31EE431A00E026E070EEC40ABB
:1009900033EE873A71EEA61AC5ED000A79EEC83A31
:1009A00085ED013A39EE274A84ED001AC4ED011AAB
:1009B000C9ED003A89ED014A88D30AF1010AF245EE
:1009C0007FF66DAF009B9B080093009C4FF6FF7372
:1009D00003EA8B0B042C3FF65BAF0199D0ED000AC4
:1009E000D0ED042A90ED012A90ED054A70EEA23A6E
:1009F00090ED021AD0ED064A70EEE20A72EE042A79
:100A0000D0ED031A90ED073A32EE442A31EE244A33
:100A100031EE641A71EE834A71EEC31A33EE843AF2
:100A200073EEC43A32EEA44A72EEE42A70EEE14A62
:100A300070EEA11A72EE010A32EE415A23EE001A4C
:100A400024EE002A23EE803A62EE802A80ED001A1E
:100A500064EE803A80ED012A60EE800A80ED023A71
:100A600021EE804AC0ED032A65EE001AC0ED043A7B
:100A7000C0ED050A80ED064AC0ED071A491E00F1D7
:100A80002000ABD102B0BDEC068BBDE8F08F70B595
:100A9000044680780D4601282188A38962680ED01B
:100AA0002846FFF7C1FCE078012818BF70BDE28935
:100AB00028462188A368BDE8704000F069B894ED2D
:100AC000040A2846FFF741FEEDE70000827000228D
:100AD000C370B1F5807F234B0180436023D004DCD9
:100AE000102934D0402928D005E0B1F5806F10D00E
:100AF000B1F5805F03D04FF0FF32104670471B4BBB
:100B000001219FED190A836080ED040A8181C18172
:100B1000F3E7174B042181819FED160A8360C181A1
:100B200080ED040AE9E7144B102181819FED130A3F
:100B30008360C18180ED040ADFE7114B4021818190
:100B40009FED100A8360C18180ED040AD5E70E4B4A
:100B50004FF4807181819FED0D0A8360C18180ED2A
:100B6000040ACAE738D500080000803936CD0008ED
:100B70003CCD00080000803A54CD00080000803BC6
:100B8000B4CD00080000803C34CF00080000803D58
:100B90002DE9F0074FF0010C0CEB51094FF0000C60
:100BA0004FEA51086146A8F1020A2DE061452BD2B7
:100BB00000EBCC0400EBC105D4ED000A95ED000A72
:100BC000C5ED000A84ED000AD4ED010A0CEB09061C
:100BD00095ED010A01EB0907C5ED010A00EBC60618
:100BE00084ED010A00EBC707D6ED000A97ED000A75
:100BF000C7ED000A86ED000AD6ED010A97ED010A5D
:100C0000C7ED010A86ED010AC44400EBC10400EB04
:100C1000CC0C94ED020ADCED000A891CC4ED020A3A
:100C20008CED000ADCED010A94ED030AC4ED030A21
:100C30008CED010A89B2B3F800C0514503EB4203C1
:100C4000B4D9BDE8F00770472DE9F04F4FF0010C23
:100C50000CEB51094FF0000C4FEA51086146A8F126
:100C6000020A25E0614523D200EBC10600EBCC056A
:100C700001EB0907D6F800E00CEB0904D5F800B049
:100C800000EBC707C6F800B000EBC404C5F800E0ED
:100C9000D6F804E0D5F804B0C6F804B0C5F804E00E
:100CA0003D6826683E6025607D6866687E60656098
:100CB000C44400EBC10400EBCC0C891CA568514571
:100CC000DCF80060A660CCF80050E668DCF8045060
:100CD000E560CCF80460B3F800C003EB4203C1D96F
:100CE000BDE8F08F2DE9F00F4F084FF0010C0CEB31
:100CF00051084FF0000C7C0804BFBDE8F00F7047AE
:100D000000EB88050146002615E000BFBCEB460F4E
:100D100011D950F82CB00CEB0809D1F800A0C1F89B
:100D200000B040F82CA050F829B0D5F800A0C5F8C4
:100D300000B040F829A0BC44D1F8049005F10805A2
:100D400006F1010650F82CA0C1F804A0083140F8C3
:100D50002C90B3F800C0641E03EB4203D6D1BDE86B
:100D6000F00F7047704700000FB4044910B503AA94
:100D7000029800F0F5F810BC5DF814FB0C0002209E
:100D80002DE9F0410E460446002020622046E1682D
:100D9000884730B3252805D0D4E901219047206A3F
:100DA000401CF2E7E168204600278847050018D07C
:100DB000A5F14100192802D820354FF400673246CA
:100DC000294620462760FFF775FA40B1012804D074
:100DD000F61D26F007060836D8E7361DD6E7284662
:100DE000DAE7206ABDE8F08170B504460D46214679
:100DF0001068AFF300802188090502D50F4A7A44B4
:100E000002E00E4A7A440E32002104F1240305E088
:100E100000F00F060009965D5E54491C0028F7D1CA
:100E200020780023000704D5702D02D009B10223D9
:100E300011322046BDE8704000F038B83647010056
:100E40004FF0000200B5134694469646203922BF63
:100E5000A0E80C50A0E80C50B1F12001BFF4F7AFAE
:100E6000090728BFA0E80C5048BF0CC05DF804EB90
:100E7000890028BF40F8042B08BF704748BF20F8FE
:100E8000022B11F0804F18BF00F8012B70477047FC
:100E900070477047704710B500F074F8006810BDD7
:100EA00010B5044600F06EF8046010BD2DE9F0475F
:100EB0000D4699469246044600F1240801688806CA
:100EC00004D5E06921F01001216000E00120A84272
:100ED00001DD471B00E00027A1697A1902EB090038
:100EE000081AA0612078C00602D42046AFF3008023
:100EF000002608E0D4E901211AF806009047206A8C
:100F0000401C761C20624E45F4DB2078C0060AD5D2
:100F10002046AFF3008006E0D4E90121302090475D
:100F2000206A401C2062381EA7F10107F4DC07E0AC
:100F3000D4E9012118F805009047206A401C20627E
:100F4000281EA5F10105F3DC2046AFF300802078D0
:100F5000000602D50220BDE8F0870120FBE7000073
:100F6000074B70B50D467B4400F015F80446284643
:100F700000F024F810B14FF0FF3070BD204670BD76
:100F80007F6F00000048704780A9052001694A1C56
:100F900002610878704700B58FB0CDE901310021BA
:100FA000059105497944CDE9031011466846FFF7DC
:100FB000E7FE0FB000BD0000E5FFFFFF007B00F083
:100FC000800070470048704780A905207546FFF7EC
:100FD000F9FFAE4605006946534620F007008546F6
:100FE00018B020B5FFF78EF9BDE820404FF000069D
:100FF0004FF000074FF000084FF0000B21F0070101
:10100000AC46ACE8C009ACE8C009ACE8C009ACE843
:10101000C0098D46704710B50446AFF300802046E6
:10102000BDE81040FFF75AB91FB584B000200A9CF4
:1010300006AB04AA02A90094AFF3008018B1DDE961
:10104000020108B010BD0348204000F005F8002060
:101050000146F6E70000207C10B500F009F8BDE875
:101060001040AFF30080002801D006F0D1BD7047DA
:1010700010B5022803D0410103D50DA112E00020D4
:1010800010BD010101D50FA10CE0C10001D511A1D6
:1010900008E0810001D512A104E0400001D513A1B0
:1010A00000E0002115A000F039F8012010BD00007B
:1010B000496E76616C6964204F7065726174696F06
:1010C0006E000000446976696465204279205A65A3
:1010D000726F00004F766572666C6F7700000000DB
:1010E000556E646572666C6F77000000496E6578B6
:1010F00061637420526573756C74000053494746F0
:1011000050453A2041726974686D65746963206561
:101110007863657074696F6E3A20000070B505469B
:101120000C460A2000E06D1C06F074FD35B12878ED
:101130000028F8D102E0641C06F06CFD14B12078A0
:101140000028F8D1BDE870400A2006F063BD000019
:101150005A49096821F44031594AC2F8041311462A
:10116000D1F8041342681143544A11600168496878
:1011700021F480710268516001684A68016942EA9D
:101180000121026851600168496821F040710268DC
:1011900051600168496882681143026851600168C2
:1011A000896821F400610268916001688968C268F9
:1011B000114302689160434A816A914218D00168E4
:1011C000896821F070610268916001688968826AAB
:1011D0001143026891600168896821F040510268FA
:1011E000916001688968C26A1143026891600BE0EE
:1011F0000168896821F070610268916001688968FE
:1012000021F04051026891600168896821F0020173
:101210000268916001688A68816942EA4101026856
:101220009160016AD1B10168496841F400610268C6
:1012300051600168496821F46041026851600168A9
:101240004A68416A491E4FF4604393FAA3F3B3FA24
:1012500083F399400A4301684A6005E001684968E0
:1012600021F40061026851600168C96A21F47001CB
:101270000268D1620168CA6A818B491E42EA015143
:101280000268D1620168896821F400710268916086
:1012900001688A68016B42EA412102689160016835
:1012A000896821F480610268916001688A684169F7
:1012B00042EA8121026891607047000004230140E6
:1012C000002001400100000F00BFFEE710B500BF85
:1012D00000BF00BF00BF00BFBFF34F8F00BF00BF04
:1012E00000BF00BF00BF00BFBFF36F8F00BF00BFD4
:1012F00000BF0020114908601148006840F4003028
:101300000F49086000BF00BF00BFBFF34F8F00BF91
:1013100000BF00BF00BF00BF00BFBFF36F8F00BFA3
:1013200000BF00BF00BF04F00FFF04484C3000684E
:1013300040F0040001494C31086010BD50EF00E05E
:1013400014ED00E01CB50A480A490860084600F0A0
:1013500078FB002000900220019000226946054899
:1013600000F042FB0021034800F0B2FB1CBD00006E
:1013700000740040A0E20320704710B5012000F087
:10138000BBFC10BD10B54FF4005000F0B5FC10BD13
:1013900010B5042000F0B0FC10BD10B5082000F01E
:1013A000ABFC10BD00B587B000BF3248006840F00C
:1013B0000100304908600846006800F00100019013
:1013C00000BF00BF00BF0846006840F0040008608E
:1013D0000846006800F00400019000BF00BF00BF95
:1013E0000846006840F0800008600846006800F089
:1013F0008000019000BF00BF012002901E480390B2
:101400000220049002A91D4800F084FC4FF4005013
:1014100002901B4803900120049002A9194800F093
:1014200079FC0C20029002A9174800F073FC0022FE
:101430000221062000F0FEFD062000F0EEFD012254
:101440000221082000F0F6FD082000F0E6FD02224F
:101450001146092000F0EEFD092000F0DEFD032218
:101460000221282000F0E6FD282000F0D6FD07B07C
:1014700000BD0000303802400000111000000240A2
:101480000000211000080240001C02402DED028BDC
:1014900086B001230022190301A8FFF717FB4FF6BE
:1014A000FF7001F019FE8FE000240DE0012000F034
:1014B00005FA00EE100AB8EE400A444901EBC400F8
:1014C00080ED000A601C84B2B4F5805FEEDB00247E
:1014D00016E09FED3F0A6000401C3C4901EB800094
:1014E00080ED000A01EBC40090ED000ADFED390A3F
:1014F00080EE201A01EBC40080ED001A601C84B25B
:10150000B4F5805FE5DB00242AE000EE104AB8EE77
:10151000400ADFED310A20EE200ADFED300A80EECE
:10152000201AB7EEC10AB0EE408B05F0ADFBB7EE66
:10153000001B31EE400BB6EE001B20EE010B2349E1
:1015400001EBC40090ED001AB7EEC11A20EE010BBA
:10155000B7EEC00B01EBC40080ED000A601C84B242
:10156000B4F5805FD1DB194901A8FFF790FA4FF479
:1015700080521B491548FEF7D7FE002419E0184891
:1015800000EB840090ED001AB7EEC11AB0EE410BEB
:10159000B0EE001B05F0D0FB9FED121B80EE012B7F
:1015A000B7EEC20B114800EB840080ED000A601C0E
:1015B00084B2B4F5805FE2DB00F0AEF806F0E4FB45
:1015C00006F02AFB04F0ECFE6EE70000F0E20320D8
:1015D000000000000000FA43DB0FC94000F07F4527
:1015E000F0620420000000000000B040F0A20420DF
:1015F00070B504461D460023B5F5804F13D154F84D
:1016000022300C480340D1E9000640EA06108E68FB
:1016100040EA06208E8940EA06408E693043034343
:1016200044F8223003E06FF0704044F822000020BC
:1016300070BD00000000F0CF10B50246002308681E
:1016400052F820301B480340D1E901042043CC6804
:1016500020430C6920434C6920438C692043CC69AA
:1016600020430C6A20434C6A20438C6A2043CC6A96
:1016700020430C6B20438C6B20434C6B2043034373
:101680008868082801D143F04003086842F82030F8
:10169000086BB0F5801F05D1086818B110680C6B95
:1016A00020431060086818B110684C6B204310602C
:1016B000002010BD8004C0FF30B503461446002250
:1016C000601C53F8202002F04042D1E9000540EAB6
:1016D00005108D6840EA05208D8940EA0545088A95
:1016E000401E45EA0055087D801E45EA00608D6970
:1016F00028430243601C43F82020186800F480103F
:1017000038B1586820F47002088A401E42EA00523C
:101710005A60002030BD000030B50222DFED610AC2
:10172000B0EE600A00200CE000245F4D25F8104068
:10173000DFED5C0A5D4C04EB8004C4ED000A441C40
:10174000A0B20A28F0DBDFED570A594CC4ED010ABC
:1017500002204BE0564C04EB800494ED001ADFEDC0
:10176000551AC1EE210A9FED541AF4EEC10AF1EEAA
:1017700010FA39DD4E4C04EB8004D4ED000A4C4DD8
:10178000441C05EB840494ED001AF4EEC10AF1EE5A
:1017900010FA11DD2C4604EB8004D4ED000A441E3F
:1017A00005EB840494ED001AF4EEC10AF1EE10FA90
:1017B00002DD3D4C608016E03D4D441C05EB840489
:1017C000D4ED000A441E05EB840494ED001AF4EEF7
:1017D000C10AF1EE10FA03DD441C334D6C8002E0C7
:1017E000441E314D6C8004E0441CA0B2B0F5006F83
:1017F000B0DD00BF2C4C648804EB4404A0B24CE084
:10180000841AE41FA1B228E0294C04EB8104D4ED32
:10181000000ADFED281A80EEA11A322494FBF2F4BC
:1018200000EE904AF8EEE00AB4EEE01AF1EE10FA9B
:1018300011DD1F4C04EB8104D4ED000AF4EEC00A64
:10184000F1EE10FA07DD1A4C04EB8104D4ED000A26
:10185000B0EE600A0B464C1CA1B28418E41D8C4209
:10186000D2DCDFED140A80EE201A322494FBF2F46D
:1018700000EE904AF8EEE00AB4EEE01AF1EE10FA4B
:1018800008DD094C24F81230541CA2B2DFED050A21
:10189000B0EE600A00EB4004A0B2B0F5006FAFDD1F
:1018A00030BD000000000000F0E2042004E304204A
:1018B000F062042000000045000016432DE9F041CD
:1018C00007460026002420E00121144800F02EFBEA
:1018D000D8B9002511E001220221104800F032FBA6
:1018E00004210E4800F022FB0444002202210B4890
:1018F00000F028FB6400681CC5B2172DEBDB042147
:10190000064800F013FB044400E0DDE700BFE043BD
:10191000441C24F07F442046BDE8F08100140240BE
:1019200070B5044600250CB9012070BD1549A06AA8
:10193000884200D000BF206C30B90020606484F879
:101940003C00204600F020F8206C00F0100088B920
:10195000206C20F4885040F0020020642046FFF7FD
:10196000F7FB00206064206C20F0020040F00100D2
:10197000206400E0012500BF002084F83C0000BF87
:101980002846D2E70100000F10B586B0044600BF1C
:101990001348006840F480701149086008460068E8
:1019A00000F48070009000BF00BF00BF0C481438E6
:1019B000006840F001000A491439086008460068D0
:1019C00000F00100009000BF00BF032001900290D2
:1019D0000020039001A9034800F09CF906B010BD57
:1019E000443802400000024070B503460024002540
:1019F00000BF5879012801D1022070BD0120587123
:101A000000BF022018711868046840F6FE7090400C
:101A10008443D1E9000640EA060505FA02F00443D2
:101A20001868046018680668C020904086431868EB
:101A300006600120187100BF0020587100BF00BF70
:101A4000DBE710B504460CB9012010BD207920B9A0
:101A500000206071204600F009F80220207100206B
:101A60002061012020710020EFE7000010B586B052
:101A7000044600BF1448006840F000501249086056
:101A80000846006800F00050009000BF00BF00BF93
:101A90000D481038006840F001000B49103908600B
:101AA0000846006800F00100009000BF00BF102051
:101AB0000190032002900020039001A9034800F048
:101AC00029F906B010BD0000403802400000024075
:101AD00030B502460023002400BF5079012801D10F
:101AE000022030BD0120507100BF0220107110682B
:101AF000006801258D4028431568286091B9106859
:101B0000006800F004031068006800F03804042B3B
:101B10001CD1382C1AD11068406840F001001568BB
:101B2000686013E01068006800F4802310680068A3
:101B300000F46014B3F5802F08D1B4F5601F05D10F
:101B40001068406840F0020015686860012010715C
:101B500000BF0020507100BF00BFC2E7014691F8EE
:101B60003500022803D080204865012070470520F9
:101B700081F835000868006820F001000A681060EC
:101B80000020F3E710B50446322006F071F9012C6D
:101B900007D0042C39D0082C53D0B4F5005F33D1D2
:101BA00081E04FF400714F4800F0C0F901282BD1BB
:101BB0004D48007808B9012000E000204A4908702B
:101BC0000846007808B9012000E000204749087065
:101BD0004548007828B101220221454800F0B2F9B9
:101BE00004E000220221424800F0ACF93F480078AE
:101BF00028B1012211463E4800F0A4F904E0002279
:101C000001213B4800F09EF96AE00221394800F0CA
:101C10008DF9A8B93448007808B9012000E0002007
:101C2000314908700846007828B101220221304865
:101C300000F088F904E0002202212D4800F082F92A
:101C40004EE001212B4800F071F928BB26480078AE
:101C500008B9012000E000202349087023480078DB
:101C600008B9012000E00020204908701E480078D3
:101C700028B1012202211E4800F064F904E000228C
:101C800002211B4800F05EF91848007828B10122B3
:101C90001146174800F056F904E0002201211448CB
:101CA00000F050F91CE04FF480710E4800F03EF94E
:101CB000A8B90E48007808B9012000E000200B49BF
:101CC00008700846007828B101221146084800F043
:101CD00039F904E000220121054800F033F900BF82
:101CE00000BF10BD000402401D0002201C000220A5
:101CF000000802400010024010B504460448006885
:101D0000204020B1024804602046FFF73BFF10BD91
:101D1000143C0140F8B502460B4600210025002482
:101D2000002000BFE4E0012606FA01F51E6806EA7D
:101D30000504AC4271D15E68022E02D05E68122E9C
:101D400013D1CF0802F1200656F827004E07F70EF0
:101D50000F26BE40B0434F07FF0E1E69BE40304302
:101D6000CF0802F1200646F8270010684F0003262E
:101D7000BE40B0431E7906F003064F00BE4030431C
:101D800010605E68012E08D05E68022E05D05E6885
:101D9000112E02D05E68122E13D190684F000326D8
:101DA000BE40B0434F00DE68BE4030439060506894
:101DB00001268E40B0431E79C6F300168E40304394
:101DC0005060D0684F000326BE40B0434F009E686D
:101DD000BE403043D0605E6806F08056B6F1805F4A
:101DE000A8D100BF444E366846F48046424F3E605C
:101DF0003E46366806F48046009600BF00BF3F4E60
:101E00008F0856F827008E07370F0F26BE40B043C5
:101E10003B4EB24202D100262EE068E0394EB2427B
:101E200001D1012628E0384EB24201D1022623E03A
:101E3000364EB24201D103261EE0354EB24201D1E8
:101E4000042619E0334EB24201D1052614E0324E89
:101E5000B24201D106260FE0304EB24201D1072630
:101E60000AE02F4EB24201D1082605E02D4EB242C3
:101E700001D1092600E00A268F073F0FBE403043FC
:101E80001E4E8F0846F82700274E3068A0435E6834
:101E900006F48036B6F5803F00D12043224E3060F4
:101EA000361D3068A0435E6806F40036B6F5003F84
:101EB00000D120431C4E361D3060361D3068A043D3
:101EC0005E6806F48016B6F5801F00D12043164EDA
:101ED00008363060361D3068A0435E6806F4001690
:101EE000B6F5001F00D120430F4E0C363060491C60
:101EF0001029FFF418AFF8BD4438024008380140FB
:101F0000000002400004024000080240000C0240B1
:101F1000001002400014024000180240001C024061
:101F20000020024000240240003C014002461369A8
:101F30000B400BB1012000E00020704742694A408D
:101F4000426170470AB1816101E00B04836170470F
:101F50000148006870470000040002200248006841
:101F6000401C0149086070470400022010B5084871
:101F7000006840F4007006490860052000F098F8F9
:101F80000F2000F007F800F047F8002010BD000017
:101F9000003C024070B50446074800684FF47A716F
:101FA000B0FBF1F5284600F007FD00222146501E47
:101FB00000F040F8002070BD000002204178154A72
:101FC00011600178F9B1121D41681160017B0907A8
:101FD000C27A41EA0261827A41EAC241427B41EA25
:101FE0008241827B41EA4241C27B41EA0241427A1C
:101FF00041EA0221027A41EA420102781143054A8C
:102000000832116005E00021024A121D1160121D04
:102010001160704798ED00E0704700BF00F01F02AC
:10202000012191404209920002F1E022C2F8001120
:1020300000BF70472DE9F05F80460D461646002729
:1020400004F064F8074639462A46334601F0070093
:10205000C0F1070ABAF1040F02D94FF0040A01E0F7
:10206000C0F1070AD14600F1040ABAF1070F02D203
:102070004FF0000A01E0A0F1030AD4464FF0010A34
:102080000AFA09FAAAF1010A0AEA020A0AFA0CFA99
:102090004FF0010B0BFA0CFBABF1010B0BEA030B3E
:1020A0004AEA0B042146404604F038F8BDE8F09FA8
:1020B00000BF00F00702064B19684FF6FF031940F6
:1020C000044B0B4343EA0221014B196000BF7047E8
:1020D0000CED00E00000FA0538B5002400BF2048F0
:1020E000006840F080501E4908600846006800F013
:1020F0008050009000BF00BF1A48006840F4803054
:1021000018490860FFF724FF044607E0FFF720FFA7
:10211000001BB0F57A7F01D9032038BD1148406813
:1021200000F48030B0F5803FF0D10E48006840F4F4
:1021300000300C490860FFF70BFF044607E0FFF78B
:1021400007FF001BB0F57A7F01D90320E5E70548BA
:10215000406800F40030B0F5003FF0D10020DCE72B
:10216000403802400070004070B504460D4600261D
:102170006648006800F00F00A8420ED2634800686D
:1021800020F00F002843614908600846006800F00D
:102190000F00A84201D0012070BD207800F002009D
:1021A000022807D15A48006820F0F000A1680843CF
:1021B00057490860207800F00100002860D060686E
:1021C000012807D1524808380068C0F34040A0B940
:1021D0000120E1E76068022807D14D48083800680F
:1021E000C0F3406048B90120D6E749480838006884
:1021F000C0F3400008B90120CEE74548006820F050
:1022000003006168084342490860FFF7A1FE0646E3
:102210006068012810D108E0FFF79AFE801B41F2A8
:102220008831884201D90320B6E73948006800F0B8
:102230000C000428F0D123E06068022810D108E0E7
:10224000FFF786FE801B41F28831884201D90320C6
:10225000A2E72F48006800F00C000828F0D10FE03A
:1022600008E0FFF775FE801B41F28831884201D9F2
:10227000032091E72648006800F00C000028F0D108
:102280002248006800F00F00A8420ED91F480068DD
:1022900020F00F0028431D4908600846006800F040
:1022A0000F00A84201D0012076E7207800F004005A
:1022B000042807D11648006820F4E050E16808437C
:1022C00013490860207800F00800082808D1104859
:1022D000006820F46040216940EAC1000C490860B0
:1022E00000F01CF80A49096801F0F001F02292FAA6
:1022F000A2F2B2FA82F2D140064A515CC8400649C5
:1023000008600F20FFF746FE002045E7003C024032
:1023100008380240DE8500080000022070B5002168
:10232000002200230020274C246804F00C0424B170
:10233000042C04D0082C41D103E0234840E023487A
:102340003EE0204C241F246804F03F011D4C241F54
:10235000246804F4800484B11C4CB4FBF1F5194CDE
:10236000241F246847F6C076344096FAA6F6B6FADB
:1023700086F6F44005FB04F20FE0134CB4FBF1F5D4
:10238000104C241F246847F6C076344096FAA6F60F
:10239000B6FA86F6F44005FB04F20A4C241F2468C2
:1023A00004F440344FF4403595FAA5F5B5FA85F5B7
:1023B000EC40641C6300B2FBF3F001E0024800BF94
:1023C00000BF70BD083802400024F40040787D0151
:1023D00038B504460025207800F00100002871D0AF
:1023E000FE48006800F00C0004280DD0FB4800688F
:1023F00000F00C00082813D1F848001F006800F412
:102400008000B0F5800F0BD1F44808380068C0F3A5
:102410004040002869D06068002866D1012038BD9E
:1024200000BF6068B0F5803F08D1EC48083800680C
:1024300040F48030E949083908602EE0606868B9E6
:10244000E6480838006820F48030E449083908601C
:102450000846006820F4802008601EE06068B0F53F
:10246000A02F0DD1DD480838006840F48020DB49FA
:10247000083908600846006840F4803008600CE0C5
:10248000D6480838006820F48030D44908390860FC
:102490000846006820F48020086000BF606890B1A2
:1024A000FFF756FD054606E0FFF752FD401B642886
:1024B00001D90320B3E7C94808380068C0F3404099
:1024C0000028F1D011E0FFF743FD054606E0FFF7D5
:1024D0003FFD401B642801D90320A0E7BF4808380E
:1024E0000068C0F340400028F1D1207800F00200DD
:1024F000022873D1B948006800F00C0058B1B74801
:10250000006800F00C00082821D1B448001F0068C2
:1025100000F48000D8B9B14808380068C0F3400022
:1025200020B1E068012801D0012078E7AB480838E5
:10253000006820F0F800F82292FAA2F2B2FA82F2D1
:10254000216991400843A5490839086046E0E068E0
:1025500050B3A2480838006840F001009F4908398C
:102560000860FFF7F5FC054606E0FFF7F1FC401BAD
:10257000022801D9032052E7984808380068C0F3C0
:1025800040000028F1D095480838006820F0F80095
:10259000F82292FAA2F2B2FA82F22169914008433B
:1025A0008E490839086019E08C480838006820F026
:1025B00001008A4908390860FFF7CAFC054606E0B1
:1025C000FFF7C6FC401B022801D9032027E78348F8
:1025D00008380068C0F340000028F1D1207800F0EE
:1025E0000800082836D16069D0B17C486C3000689A
:1025F00040F0010079496C310860FFF7A9FC0546FD
:1026000006E0FFF7A5FC401B022801D9032006E7DE
:1026100072486C300068C0F340000028F1D019E027
:102620006E486C30006820F001006C496C31086025
:10263000FFF78EFC054606E0FFF78AFC401B0228E8
:1026400001D90320EBE665486C300068C0F3400018
:102650000028F1D1207800F00400042871D100BFD7
:102660005E483830006840F080505C49383108607E
:102670000846006800F08050009000BF00BF584836
:10268000006840F4807056490860FFF761FC054619
:1026900006E0FFF75DFC401B642801D90320BEE67D
:1026A0004F48006800F480700028F2D000BFA06896
:1026B000012808D149486830006840F001004749C6
:1026C000683108602DE0A06868B944486830006847
:1026D00020F001004149683108600846006820F098
:1026E000040008601DE0A06805280DD13B48683053
:1026F000006840F004003949683108600846006805
:1027000040F0010008600CE034486830006820F0B8
:1027100001003249683108600846006820F0040072
:10272000086000BFA068A8B1FFF712FC054609E0E9
:10273000FFF70EFC401B41F28831884202D903208A
:102740006DE61BE0254868300068C0F340000028B3
:10275000EED013E0FFF7FCFB054608E0FFF7F8FBBF
:10276000401B41F28831884201D9032057E61B48BB
:1027700068300068C0F340000028EFD1A06988B33A
:102780001648006800F00C00082873D0A0690228E1
:1027900064D112480838006820F080700F49083969
:1027A0000860FFF7D5FB054606E0FFF7D1FB401BAD
:1027B000022801D9032032E6084808380068C0F32F
:1027C00040600028F1D1D4E90701084347F6C07200
:1027D00092FAA2F2B2FA82F2616A04E00838024088
:1027E0000070004058E0914008430122A16AC2EB0A
:1027F00051014FF4403292FAA2F2B2FA82F29140C1
:1028000008434FF0706292FAA2F2B2FA82F2E16AE1
:10281000914008434FF0E04292FAA2F2B2FA82F2FB
:10282000216B914008431D490860081F006840F073
:102830008070091F0860FFF78BFB054606E0FFF775
:1028400087FB401B022801D90320E8E51348001F3D
:102850000068C0F340600028F1D01DE00F48001F61
:10286000006820F080700D49091F0860FFF770FBB9
:10287000054607E00EE0FFF76BFB401B022801D97D
:102880000320CCE50548001F0068C0F34060002825
:10289000F1D101E00120C2E50020C0E5043802408A
:1028A00070B504460E4615460CB9012070BD94F86B
:1028B000450028B9002084F84400204600F01CF8A8
:1028C00004F108012068FEF7B7FE3146A2682068CF
:1028D000FEF7F2FE2946E36AD4E90102FEF788FE1C
:1028E000A168206850F8210040F00100A26821682A
:1028F00041F822000020D9E710B586B0044600BF99
:102900002048006840F001001E4908600846006841
:1029100000F00100009000BF00BF00BF1948083858
:10292000006840F008001749083908600846006848
:1029300000F00800009000BF00BF00BF084600681C
:1029400040F0100008600846006800F01000009099
:1029500000BF00BF4EF2B370019002200290012030
:102960000390032004900C20059001A90648FFF76E
:10297000D1F94FF68070019001A90448FFF7CAF918
:1029800006B010BD38380240000C02400010024072
:10299000042808D14FF0E021096941F004014FF00B
:1029A000E022116107E04FF0E021096921F0040104
:1029B0004FF0E0221161704770B504462546681E4D
:1029C000B0F1807F01D301200FE0681E4FF0E021BD
:1029D00048610F214FF0FF3003F0A0FB00204FF0C3
:1029E000E021886107200861002070BD70477047B2
:1029F000704710B5044620680069C0F34000D8B1A4
:102A00002068C068C0F34000B0B16FF002002168D8
:102A10000861012020762068806900F0030018B169
:102A20002046FFF7E5FF05E0204600F0BEF820460F
:102A300000F0BCF80020207620680069C0F3800018
:102A4000D8B12068C068C0F38000B0B16FF0040056
:102A500021680861022020762068806900F44070B7
:102A600018B12046FFF7C4FF05E0204600F09DF8AE
:102A7000204600F09BF80020207620680069C0F313
:102A8000C000D8B12068C068C0F3C000B0B16FF01A
:102A9000080021680861042020762068C06900F0E1
:102AA000030018B12046FFF7A3FF05E0204600F021
:102AB0007CF8204600F07AF8002020762068006933
:102AC000C0F30010D8B12068C068C0F30010B0B1E6
:102AD0006FF0100021680861082020762068C06926
:102AE00000F4407018B12046FFF782FF05E0204651
:102AF00000F05BF8204600F059F8002020762068AE
:102B0000006900F0010058B12068C06800F00100C1
:102B100030B16FF0010021680861204600F048F8EC
:102B200020680069C0F3C01058B12068C068C0F3C5
:102B3000C01030B16FF08000216808612046FFF7B7
:102B400055FF20680069C0F3002058B12068C068B4
:102B5000C0F3C01030B16FF08000216808612046DA
:102B6000FFF744FF20680069C0F3801058B1206867
:102B7000C068C0F3801030B16FF040002168086178
:102B8000204600F023F820680069C0F3401058B1D7
:102B90002068C068C0F3401030B16FF02000216899
:102BA00008612046FFF723FF10BD70477047000003
:102BB00010B504460348844203D102210248FFF7BE
:102BC000BDF910BDB4E20320000802407047704711
:102BD00001460022002391F8692091F86A3042EA08
:102BE000030070472DE9F04104462068C56920685C
:102BF00006682068876805F00F08B8F1000F0AD151
:102C000005F0200038B106F0200020B1204603F086
:102C10007DFFBDE8F081B8F1000F79D040F20110DE
:102C20003840002874D005F0010048B106F48070E7
:102C300030B1012021680862E06E40F00100E066DA
:102C400005F0020048B107F0010030B10220216810
:102C50000862E06E40F00400E06605F0040048B150
:102C600007F0010030B1042021680862E06E40F0F6
:102C70000200E06605F0080060B106F0200010B91F
:102C800007F0010030B1082021680862E06E40F0D2
:102C90000800E066E06E58B305F0200028B106F0A9
:102CA000200010B1204603F031FFE06E00F0080074
:102CB00020B92068806800F0400018B3204603F077
:102CC00005FF2068806800F04000B8B12068806887
:102CD00020F0400021688860606E50B11748616E36
:102CE0000865606EFEF73AFF10B1606E016D8847AF
:102CF0000DE02046FFF76BFF09E009E02046FFF7F3
:102D000066FF04E02046FFF762FF0020E06680E7F0
:102D100005F0800030B106F0800018B1204603F0C5
:102D200039FF76E705F0400030B106F0400018B1F9
:102D3000204603F0DBFE6CE700BF6AE7B56A0008D7
:102D400010B5034693F86A0020285BD101B10AB997
:102D5000012010BD00BF93F86800012801D10220B6
:102D6000F7E7012083F8680000BF5965A3F85820F1
:102D7000A3F85A2000BF9868B0F5805F0AD118699F
:102D800020B940F2FF10A3F85C001CE0FF20A3F87C
:102D90005C0018E0986848B9186918B9FF20A3F8D2
:102DA0005C0010E07F20A3F85C000CE09868B0F1B4
:102DB000805F08D1186918B97F20A3F85C0002E091
:102DC0003F20A3F85C0000BF0020D866222083F8D3
:102DD0006A0000BF002083F8680000BF1868006820
:102DE00040F480701C6820601868806840F0010022
:102DF0001C68A0601868006840F020001C68206013
:102E00000020A6E70220A4E71D4A0168914236D1BE
:102E10001C49098801F4004189BB1A49098801F459
:102E2000804171B1184909780A2903D00021154A57
:102E3000118024E01349098841F40041114A1180AE
:102E40001DE0114909780D2906D10E49098841F480
:102E500080410C4A118012E00B490978094A128816
:102E6000C2F30D02094B995406490988491C054AC9
:102E7000118011460988C72901DD002111807047A2
:102E8000001001401000022012000220C4E00320C4
:102E9000704700BFFEE700001CB50024FEF716FADD
:102EA000FFF764F80923022219214FF4D87003F0C8
:102EB00069FDD82004F0D2FF00F0EEFAFEF772FAB6
:102EC00003F0FEF8FEF73EFA03F08CF900203349D8
:102ED000086033A020210B464FF48272CDE9001028
:102EE00028210A2002F0FAFF2FA018210B46F02219
:102EF000CDE9001050210A2002F0F0FF2DA0102192
:102F00000B46F022CDE900106E210A2002F0E6FF08
:102F10002A48C5234FF4F872502100904FF4967060
:102F200000F0FCF903F096F825A0182120234FF4B7
:102F30001672CDE900104FF4B471322002F0CEFFCA
:102F40002AA018212023F022CDE900104FF4C371EC
:102F5000322002F0C3FF29A018212023F022CDE95E
:102F600000104FF4D271322002F0B8FF12E00120BD
:102F700000F04CF8C4B2012C03D1002000F0ACF8F2
:102F800009E0022C06D14FF6FF7000F0A5F803F01F
:102F90006BF900E0EBE700BF1CBD0000140002204D
:102FA00055455354430000005445414D3A434C2D80
:102FB0003038000053544D3332463700260002208B
:102FC0005768657468657220746F20656E61626C05
:102FD00065207468652073656C662D746573742054
:102FE00070726F6772616D3F000000005052455370
:102FF00053204B45595F302059455300505245539B
:1030000053204B45595F31204E4F000010B5044608
:10301000012C01D12D4908702C480078002839D0A6
:1030200001212B48FEF782FF80B102212848FEF7DC
:103030007DFF58B14FF480712648FEF777FF28B125
:103040004FF400712348FEF771FF18BB0A2004F00B
:103050000FFF00201D49087001211D48FEF766FF83
:1030600008B9012010BD02211948FEF75FFF08B919
:103070000220F7E74FF480711648FEF757FF08B9B2
:103080000320EFE74FF400711248FEF74FFFD8B965
:103090000420E7E701210E48FEF748FF012813D17D
:1030A00002210B48FEF742FF01280DD10102094819
:1030B000FEF73CFF012807D141020648FEF736FF24
:1030C000012801D1014908700020CBE7130002203C
:1030D000001002400004024070B504460026094872
:1030E0000588408845430021084602F0BDFD02F0F6
:1030F0009FFF00BF02E004490C80761CAE42FAD369
:1031000070BD000048E203200000086010B50446CE
:10311000002C52D154498871F02008804FF4A070DF
:1031200048800846808849F24131884205D04E489F
:10313000808845F21031884214D12C204A490881F8
:103140002A2048812B2088810846808845F210314A
:10315000884206D14FF4A070434908804FF4F070C4
:1031600048807DE04048808845F21051884210D167
:103170004FF430503C4908814FF4285048814FF4B7
:103180002C5088814FF4F07008804FF448704880CC
:1031900066E03548808841F66311884260D12C2072
:1031A000314908812B2048812A2088814FF4F07012
:1031B00008804FF44870488052E001202A49887105
:1031C0004FF4A0700880F02048800846808849F2BB
:1031D0004131884205D02448808845F21031884228
:1031E00007D12C20204908812A2048812B20888162
:1031F00029E01D48808845F21051884210D14FF4D3
:103200003050194908814FF4285048814FF42C5010
:1032100088814FF4487008804FF4F070488012E0C5
:103220001148808841F6631188420CD12C200E4948
:1032300008812A2048812B2088814FF4487008801B
:103240004FF4F07048800848808845F21031884279
:1032500006D14FF4F070044908804FF4A070488004
:10326000002002F0C7FB10BD48E203202DE9FF4F0C
:1032700084B081468A460020039002900698A0EB15
:1032800009050798A0EB0A06CDF80490CDF800A038
:10329000002D01DD012705E00DB9002702E04FF008
:1032A000FF376D42002E02DD4FF0010806E016B92F
:1032B0004FF0000802E04FF0FF387642B54201DDE2
:1032C0002C4600E034464FF0000B21E0009A91B20A
:1032D000019A90B200F04AF80398284403900298AB
:1032E000304402900398A04205DD0398001B039030
:1032F0000198384401900298A04205DD0298001B15
:1033000002900098404400900BF101001FFA80FBEE
:10331000601C8345DADD08B0BDE8F08F2DE9F84F79
:1033200004460F4616469846DDF828902546BB46CB
:10333000301B401C00FB08F000904FF0000A10E02A
:1033400039F8022B5946284600F022F8681C85B24D
:10335000B54204DB0BF101001FFA80FB25460AF1A0
:10336000010A00988245EBD3BDE8F88F30B50446DA
:103370000D462946204602F077FC02F059FE02482D
:1033800000880249088030BD140002200000086057
:1033900030B504460D463E48808849F241318842A6
:1033A00005D03B48808845F21031884214D1384915
:1033B000488902F031FE201202F022FEE0B202F053
:1033C0001FFE3349888902F027FE281202F018FEFA
:1033D000E8B202F015FE54E02D48808845F2105105
:1033E000884220D12A49488902F016FE201202F0B4
:1033F00007FE27494989491C88B202F00DFEE0B258
:1034000002F0FEFD2249888902F006FE281202F031
:10341000F7FD1F498989491C88B202F0FDFDE8B219
:1034200002F0EEFD2DE01A48808841F663118842D3
:1034300027D11748807920B915480088401E001B05
:1034400084B21349488902F0E7FD201202F0D8FD4A
:10345000E0B202F0D5FD201202F0D2FDE0B202F09F
:10346000CFFD0B49888902F0D7FD281202F0C8FD74
:10347000E8B202F0C5FD281202F0C2FDE8B202F087
:10348000BFFD0348008903490880891C0A8030BDBC
:1034900048E20320FEFF076000B595B000BFFE487C
:1034A000006840F00800FC4908600846006800F029
:1034B0000800019000BF00BFC814109001201190B7
:1034C00012900320139010A9F448FEF723FC02F099
:1034D00011FA4FF02040F2490860F248486000209D
:1034E00088600021EE48C16001611021416109023C
:1034F00041628900C1620F20099000200A9050208B
:103500000B9000200F900F200290002003900F20BE
:1035100004900020089002AA09A9E148FFF7C0F929
:10352000322004F0A5FCD32002F076FD02F030FA40
:10353000DD49888002F02CFADB49888002F028FA05
:10354000D9498880084680884FF6FF7101EA00203B
:10355000D549888002F01CFAD34989880843D249AA
:1035600088800846808849F24131884278D0D4204A
:1035700002F052FD02F00CFACB49888002F008FA02
:10358000C949888002F004FAC749888008468088C3
:103590004FF6FF7101EA0020C349888002F0F8F974
:1035A000C14989880843C04988800846808845F217
:1035B0001031884254D04FF45A4002F02DFD02F0F1
:1035C000E7F9B94988804FF45B4002F025FD02F02D
:1035D000DFF9B5498880084680884FF6FF7101EA17
:1035E0000020B14988804FF45C4002F015FD02F0E4
:1035F000CFF9AD4989880843AB498880084680885F
:10360000B0F5004F02D145F210508880A64880885E
:1036100045F21051884223D0A12002F0FDFC02F0B7
:10362000B7F9A149888002F0B3F99F49888008461C
:1036300080884FF6FF7101EA00209B49888002F0E4
:10364000A7F999498988084397498880084680885E
:1036500045F26171884203D141F663109249888036
:103660009148818891A0FDF77FFB8F48808849F2BF
:10367000413188427ED1CF2002F0CEFC002002F002
:10368000BFFCC12002F0BCFC302002F0B9FCED20F0
:1036900002F0C2FC642002F0B3FC032002F0B0FC94
:1036A000122002F0ADFC812002F0AAFCE82002F01A
:1036B000B3FC852002F0A4FC102002F0A1FC7A20CB
:1036C00002F09EFCCB2002F0A7FC392002F098FC0F
:1036D0002C2002F095FC002002F092FC342002F035
:1036E0008FFC022002F08CFCF72002F095FC2020D9
:1036F00002F086FCEA2002F08FFC002002F080FC41
:10370000002002F07DFCC02002F086FC1B2002F0AD
:1037100077FCC12002F080FC012002F071FCC52082
:1037200002F07AFC302002F06BFC302002F068FCE2
:10373000C72002F071FCB72002F062FC362002F0D4
:103740006BFC482002F05CFC3A2002F065FC55203E
:1037500002F056FCB12002F05FFC002002F050FCA9
:103760001A2002F04DFCB62002F056FC0A2002F0AE
:1037700047FC00E0AAE0A22002F042FCF22002F0A6
:103780004BFC002002F03CFC262002F045FC01200E
:1037900002F036FCE02002F03FFC0F2002F030FC8B
:1037A0002A2002F02DFC282002F02AFC082002F03A
:1037B00027FC0E2002F024FC082002F021FC5420FB
:1037C00002F01EFCA92002F01BFC432002F018FCB2
:1037D0000A2002F015FC0F2002F012FC002002F07B
:1037E0000FFC002002F00CFC002002F009FC00207D
:1037F00002F006FCE12002F00FFC002002F000FCC9
:10380000152002F0FDFB172002F0FAFB072002F062
:10381000F7FB112002F0F4FB062002F0F1FB2B2055
:1038200002F0EEFB562002F0EBFB3C2002F0E8FB3E
:10383000052002F0E5FB102002F0E2FB0F2002F071
:10384000DFFB3F2002F0DCFB3F2002F0D9FB0F2022
:1038500002F0D6FB2B2002F0DFFB002002F0D0FBB1
:10386000002002F0CDFB012002F0CAFB3F2002F055
:10387000C7FB2A2002F0D0FB002002F0C1FB002091
:1038800002F0BEFB002002F0BBFBEF2002F0B8FB11
:10389000112002F0C1FB11E030380240000C024060
:1038A000FCE10320040100A048E20320204C434433
:1038B0002049443A25780D0A00000000782004F0E1
:1038C000D7FA292002F0A8FB01F0CBBFFE48808880
:1038D00045F21031884240F07C87ED2002F09CFBDD
:1038E000012002F08DFBFE2002F08AFBEE2002F0A8
:1038F00093FBDE2002F084FB212002F081FBF1200B
:1039000002F08AFB012002F07BFBDF2002F084FB47
:10391000102002F075FBC42002F07EFB8F2002F025
:103920006FFBC62002F078FB002002F069FBE2206A
:1039300002F066FBE22002F063FBE22002F060FB93
:10394000BF2002F069FBAA2002F05AFBB02002F06F
:1039500063FB0D2002F054FB002002F051FB0D2010
:1039600002F04EFB002002F04BFB112002F048FB5E
:10397000002002F045FB192002F042FB002002F07B
:103980003FFB212002F03CFB002002F039FB2D2000
:1039900002F036FB002002F033FB3D2002F030FB4A
:1039A000002002F02DFB5D2002F02AFB002002F037
:1039B00027FB5D2002F024FB002002F021FBB12058
:1039C00002F02AFB802002F01BFB002002F018FB13
:1039D0008B2002F015FB002002F012FB962002F073
:1039E0000FFB002002F00CFBB22002F015FB0020C0
:1039F00002F006FB002002F003FB022002F000FBB5
:103A0000002002F0FDFA032002F0FAFA002002F092
:103A1000F7FAB32002F000FB002002F0F1FA0020D8
:103A200002F0EEFA002002F0EBFA002002F0E8FAD1
:103A3000002002F0E5FA002002F0E2FA002002F095
:103A4000DFFA002002F0DCFA002002F0D9FA0020B0
:103A500002F0D6FA002002F0D3FA002002F0D0FAE9
:103A6000002002F0CDFA002002F0CAFA002002F095
:103A7000C7FA002002F0C4FA002002F0C1FA0020C8
:103A800002F0BEFA002002F0BBFA002002F0B8FA01
:103A9000002002F0B5FA002002F0B2FA002002F095
:103AA000AFFA002002F0ACFAB42002F0B5FA8B2095
:103AB00002F0A6FA002002F0A3FA962002F0A0FA83
:103AC000002002F09DFAA12002F09AFA002002F0F4
:103AD00097FAB52002F0A0FA022002F091FA002035
:103AE00002F08EFA032002F08BFA002002F088FA2E
:103AF000042002F085FA002002F082FAB62002F0DB
:103B00008BFA002002F07CFA002002F079FAB7204C
:103B100002F082FA002002F073FA002002F070FA3C
:103B20003F2002F06DFA002002F06AFA5E2002F0F7
:103B300067FA002002F064FA642002F061FA0020C3
:103B400002F05EFA8C2002F05BFA002002F058FAD4
:103B5000AC2002F055FA002002F052FADC2002F00C
:103B60004FFA002002F04CFA702002F049FA0020CF
:103B700002F046FA902002F043FA002002F040FAE8
:103B8000EB2002F03DFA002002F03AFADC2002F0CD
:103B900037FA002002F034FAB82002F03DFA002093
:103BA00002F02EFA002002F02BFA002002F028FA90
:103BB000002002F025FA002002F022FA002002F094
:103BC0001FFA002002F01CFA002002F019FABA20B5
:103BD00002F022FA242002F013FA002002F010FA78
:103BE000002002F00DFA002002F00AFAC12002F0D3
:103BF00013FA202002F004FA002002F001FA542007
:103C000002F0FEF9002002F0FBF9FF2002F0F8F9C3
:103C1000002002F0F5F9C22002F0FEF90A2002F0BD
:103C2000EFF9002002F0ECF9042002F0E9F900209D
:103C300002F0E6F9C32002F0EFF93C2002F0E0F9CF
:103C4000002002F0DDF93A2002F0DAF9002002F05B
:103C5000D7F9392002F0D4F9002002F0D1F9372049
:103C600002F0CEF9002002F0CBF93C2002F0C8F9B6
:103C7000002002F0C5F9362002F0C2F9002002F05F
:103C8000BFF9322002F0BCF9002002F0B9F92F2070
:103C900002F0B6F9002002F0B3F92C2002F0B0F9DE
:103CA000002002F0ADF9292002F0AAF9002002F06C
:103CB000A7F9262002F0A4F9002002F0A1F924209F
:103CC00002F09EF9002001E048E2032002F098F99A
:103CD000242002F095F9002002F092F9232002F04E
:103CE0008FF9002002F08CF93C2002F089F90020C5
:103CF00002F086F9362002F083F9002002F080F904
:103D0000322002F07DF9002002F07AF92F2002F033
:103D100077F9002002F074F92C2002F071F90020EC
:103D200002F06EF9292002F06BF9002002F068F928
:103D3000262002F065F9002002F062F9242002F04A
:103D40005FF9002002F05CF9242002F059F900200C
:103D500002F056F9232002F053F9002002F050F946
:103D6000C42002F059F9622002F04AF9002002F062
:103D700047F9052002F044F9002002F041F98420BF
:103D800002F03EF9002002F03BF9F02002F038F991
:103D9000002002F035F9182002F032F9002002F07C
:103DA0002FF9A42002F02CF9002002F029F91820A4
:103DB00002F026F9002002F023F9502002F020F949
:103DC000002002F01DF90C2002F01AF9002002F088
:103DD00017F9172002F014F9002002F011F99520CC
:103DE00002F00EF9002002F00BF9F32002F008F9BE
:103DF000002002F005F9E62002F002F9002002F0AE
:103E0000FFF8C52002F008F9322002F0F9F800208E
:103E100002F0F6F8442002F0F3F8002002F0F0F887
:103E2000652002F0EDF8002002F0EAF8762002F0BA
:103E3000E7F8002002F0E4F8882002F0E1F8002022
:103E400002F0DEF8C62002F0E7F8202002F0D8F8F1
:103E5000002002F0D5F8172002F0D2F8002002F07E
:103E6000CFF8012002F0CCF8002002F0C9F8C720FA
:103E700002F0D2F8002002F0C3F8002002F0C0F8EF
:103E8000002002F0BDF8002002F0BAF8C82002F0CD
:103E9000C3F8002002F0B4F8002002F0B1F80020CE
:103EA00002F0AEF8002002F0ABF8C92002F0B4F83E
:103EB000002002F0A5F8002002F0A2F8002002F095
:103EC0009FF8002002F09CF8002002F099F80020F2
:103ED00002F096F8002002F093F8002002F090F82B
:103EE000002002F08DF8002002F08AF8002002F095
:103EF00087F8002002F084F8002002F081F800200A
:103F000002F07EF8002002F07BF8002002F078F842
:103F1000E02002F081F8162002F072F8002002F092
:103F20006FF81C2002F06CF8002002F069F82120E4
:103F300002F066F8002002F063F8362002F060F824
:103F4000002002F05DF8462002F05AF8002002F04E
:103F500057F8522002F054F8002002F051F8642083
:103F600002F04EF8002002F04BF87A2002F048F8F8
:103F7000002002F045F88B2002F042F8002002F009
:103F80003FF8992002F03CF8002002F039F8A82010
:103F900002F036F8002002F033F8B92002F030F8D1
:103FA000002002F02DF8C42002F02AF8002002F0D0
:103FB00027F8CA2002F024F8002002F021F8D220CD
:103FC00002F01EF8002002F01BF8D92002F018F8C9
:103FD000002002F015F8E02002F012F8002002F0B4
:103FE0000FF8F32002F00CF8002002F009F8E120AD
:103FF00002F012F8162002F003F8002002F000F898
:104000001C2001F0FDFF002001F0FAFF222001F04A
:10401000F7FF002001F0F4FF362001F0F1FF00204F
:1040200001F0EEFF452001F0EBFF002001F0E8FF7A
:10403000522001F0E5FF002001F0E2FF642001F0D2
:10404000DFFF002001F0DCFF7A2001F0D9FF002023
:1040500001F0D6FF8B2001F0D3FF002001F0D0FF4C
:10406000992001F0CDFF002001F0CAFFA82001F047
:10407000C7FF002001F0C4FFB92001F0C1FF0020FC
:1040800001F0BEFFC42001F0BBFF002001F0B8FF2B
:10409000CA2001F0B5FF002001F0B2FFD22001F0EC
:1040A000AFFF002001F0ACFFD82001F0A9FF0020F5
:1040B00001F0A6FFE02001F0A3FF002001F0A0FF27
:1040C000F32001F09DFF002001F09AFFE22001F0B3
:1040D000A3FF052001F094FF002001F091FF0B20C9
:1040E00001F08EFF002001F08BFF1B2001F088FF04
:1040F000002001F085FF342001F082FF002001F054
:104100007FFF442001F07CFF002001F079FF4F2069
:1041100001F076FF002001F073FF612001F070FFD5
:10412000002001F06DFF792001F06AFF002001F00E
:1041300067FF882001F064FF002001F061FF9720F5
:1041400001F05EFF002001F05BFFA62001F058FFA8
:10415000002001F055FFB72001F052FF002001F0D0
:104160004FFFC22001F04CFF002001F049FFC720A3
:1041700001F046FF002001F043FFD12001F040FF95
:10418000002001F03DFFD62001F03AFF002001F0B1
:1041900037FFDD2001F034FF002001F031FFF32074
:1041A00001F02EFF002001F02BFFE32001F034FF8F
:1041B000052001F025FF002001F022FF0A2001F078
:1041C0001FFF002001F01CFF1C2001F019FF002040
:1041D00001F016FF332001F013FF002001F010FF63
:1041E000442001F00DFF002001F00AFF502001F0F3
:1041F00007FF002001F004FF622001F001FF002012
:1042000001F0FEFE782001F0FBFE002001F0F8FE38
:10421000882001F0F5FE002001F0F2FE972001F069
:10422000EFFE002001F0ECFEA62001F0E9FE0020E8
:1042300001F0E6FEB72001F0E3FE002001F0E0FE11
:10424000C22001F0DDFE002001F0DAFEC72001F0FF
:10425000D7FE002001F0D4FED12001F0D1FE0020D5
:1042600001F0CEFED52001F0CBFE002001F0C8FE0B
:10427000DD2001F0C5FE002001F0C2FEF32001F0B8
:10428000BFFE002001F0BCFEE42001F0C5FE0120CD
:1042900001F0B6FE002001F0B3FE012001F0B0FEF7
:1042A000002001F0ADFE022001F0AAFE002001F086
:1042B000A7FE2A2001F0A4FE002001F0A1FE3C2070
:1042C00001F09EFE002001F09BFE4B2001F098FEC5
:1042D000002001F095FE5D2001F092FE002001F02B
:1042E0008FFE742001F08CFE002001F089FE8420F6
:1042F00001F086FE002001F083FE932001F080FE95
:10430000002001F07DFEA22001F07AFE002001F0E5
:1043100077FEB32001F074FE002001F071FEBE2094
:1043200001F06EFE002001F06BFEC42001F068FE7B
:10433000002001F065FECD2001F062FE002001F0BA
:104340005FFED32001F05CFE002001F059FEDD206D
:1043500001F056FE002001F053FEF32001F050FE64
:10436000002001F04DFEE52001F056FE002001F096
:1043700047FE002001F044FE002001F041FE002035
:1043800001F03EFE022001F03BFE002001F038FE6D
:10439000292001F035FE002001F032FE3C2001F022
:1043A0002FFE002001F02CFE4B2001F029FE002002
:1043B00001F026FE5D2001F023FE002001F020FE2A
:1043C000742001F01DFE002001F01AFE842001F08F
:1043D00017FE002001F014FE932001F011FE0020D2
:1043E00001F00EFEA22001F00BFE002001F008FEFD
:1043F000B32001F005FE002001F002FEBE2001F016
:10440000FFFD002001F0FCFDC42001F0F9FD0020BB
:1044100001F0F6FDCD2001F0F3FD002001F0F0FDEC
:10442000D32001F0EDFD002001F0EAFDDC2001F0D9
:10443000E7FD002001F0E4FDF32001F0E1FD0020A4
:1044400001F0DEFDE62001F0E7FD112001F0D8FDCE
:10445000002001F0D5FD342001F0D2FD002001F054
:10446000CFFD562001F0CCFD002001F0C9FD7620E3
:1044700001F0C6FD002001F0C3FD772001F0C0FD72
:10448000002001F0BDFD662001F0BAFD002001F022
:10449000B7FD882001F0B4FD002001F0B1FD9920A6
:1044A00001F0AEFD002001F0ABFDBB2001F0A8FD46
:1044B000002001F0A5FD992001F0A2FD002001F0EF
:1044C0009FFD662001F09CFD002001F099FD552024
:1044D00001F096FD002001F093FD552001F090FDC4
:1044E000002001F08DFD452001F08AFD002001F043
:1044F00087FD432001F084FD002001F081FD442070
:1045000001F07EFD002001F07BFDE72001F084FD3D
:10451000322001F075FD002001F072FD552001F000
:104520006FFD002001F06CFD762001F069FD002098
:1045300001F066FD662001F063FD002001F060FDE2
:10454000672001F05DFD002001F05AFD672001F0B9
:1045500057FD002001F054FD872001F051FD00209F
:1045600001F04EFD992001F04BFD002001F048FDC7
:10457000BB2001F045FD002001F042FD992001F033
:104580003FFD002001F03CFD772001F039FD0020C7
:1045900001F036FD442001F033FD002001F030FD34
:1045A000562001F02DFD002001F02AFD232001F00E
:1045B00027FD002001F024FD332001F021FD002023
:1045C00001F01EFD452001F01BFD002001F018FD4B
:1045D000E82001F021FD002001F012FD002001F093
:1045E0000FFD992001F00CFD002001F009FD87204E
:1045F00001F006FD002001F003FD882001F000FD20
:10460000002001F0FDFC772001F0FAFC002001F011
:10461000F7FC662001F0F4FC002001F0F1FC88209A
:1046200001F0EEFC002001F0EBFCAA2001F0E8FC18
:10463000002001F0E5FCBB2001F0E2FC002001F0CD
:10464000DFFC992001F0DCFC002001F0D9FC6620A1
:1046500001F0D6FC002001F0D3FC552001F0D0FC85
:10466000002001F0CDFC552001F0CAFC002001F033
:10467000C7FC442001F0C4FC002001F0C1FC442030
:1046800001F0BEFC002001F0BBFC552001F0B8FC9D
:10469000002001F0B5FCE92001F0BEFCAA2001F0E9
:1046A000AFFC002001F0ACFC002001F0A9FC0020D0
:1046B00001F0A6FC002001F0AFFCAA2001F0A0FC54
:1046C000CF2001F0A9FC002001F09AFC002001F0AD
:1046D00097FC002001F094FC002001F091FC0020E8
:1046E00001F08EFC002001F08BFC002001F088FC22
:1046F000002001F085FC002001F082FC002001F088
:104700007FFC002001F07CFC002001F079FC0020FF
:1047100001F076FC002001F073FC002001F070FC39
:10472000002001F06DFC002001F06AFCF02001F097
:1047300073FC002001F064FC502001F061FC0020BB
:1047400001F05EFC002001F05BFC002001F058FC51
:10475000F32001F061FC002001F052FCF92001F08F
:104760005BFC062001F04CFC102001F049FC2920E4
:1047700001F046FC002001F043FC3A2001F04CFC23
:10478000552001F03DFC112001F046FC642003F0AF
:104790006FFB292001F040FC352001F03DFC00209A
:1047A00001F02EFC512001F037FCFF2001F028FC25
:1047B000532001F031FC2C2001F022FC552001F0A7
:1047C0002BFC822001F01CFC2C2001F025FC01F0C8
:1047D00048B8FE48808845F2105188427ED1552164
:1047E0004FF4704001F02EFCAA214FF2010001F0BD
:1047F00029FC52214FF2020001F024FC08214FF263
:10480000030001F01FFC01214FF2040001F01AFC2B
:104810000D214FF4304001F015FC0D214BF2010049
:1048200001F010FC0D214BF2020001F00BFC3421D1
:104830004FF4364001F006FC34214BF2016001F0E8
:1048400001FC34214BF2026001F0FCFB0D214FF41E
:10485000314001F0F7FB0D214BF2011001F0F2FBAA
:104860000D214BF2021001F0EDFB34214FF43740E3
:1048700001F0E8FB34214BF2017001F0E3FB34213D
:104880004BF2027001F0DEFB00214FF4324001F0E8
:10489000D9FB00214BF2012001F0D4FB00214BF2A7
:1048A000022001F0CFFB24214FF4384001F0CAFB75
:1048B00024214BF6010001F0C5FB24214BF6020038
:1048C00001F0C0FB01214FF43F4001F0BBFB0F2181
:1048D0004FF4334001F0B6FB0F2100E0FEE34BF252
:1048E000013001F0AFFB0F214BF2023001F0AAFBC7
:1048F00034214FF4394001F0A5FB34214BF601106F
:1049000001F0A0FB34214BF6021001F09BFB0821C3
:104910004FF4354001F096FB08214BF2015001F0B5
:1049200091FB08214BF2025001F08CFB03214FF464
:10493000424001F087FB24214FF43A4001F082FB12
:1049400024214BF6012001F07DFB24214BF60220AF
:1049500001F078FB00214FF43C4001F073FB78211B
:104960004BF6014001F06EFB00214BF6024001F0D6
:1049700069FB00214FF43D4001F064FB78214BF6C8
:10498000015001F05FFB00214BF6025001F05AFB91
:1049900000214FF43E4001F055FB64214BF60160CD
:1049A00001F050FB00214FF4514001F04BFB33214B
:1049B0004DF2011001F046FB00214DF2021001F012
:1049C00041FB34214DF2031001F03CFB00214DF27C
:1049D000041001F037FB3A214DF2051001F032FBD3
:1049E00000214DF2061001F02DFB4A214DF2071077
:1049F00001F028FB00214DF2081001F023FB5C219F
:104A00004DF2091001F01EFB00214DF20A1001F0D9
:104A100019FB81214DF20B1001F014FB00214DF226
:104A20000C1001F00FFBA6214DF20D1001F00AFB56
:104A300000214DF20E1001F005FBE5214DF20F10A3
:104A400001F000FB01214DF2101001F0FBFA1321DF
:104A50004DF2111001F0F6FA01214DF2121001F0A1
:104A6000F1FA54214DF2131001F0ECFA01214DF24C
:104A7000141001F0E7FA82214DF2151001F0E2FA6C
:104A800001214DF2161001F0DDFACA214DF2171086
:104A900001F0D8FA02214DF2181001F0D3FA0021EA
:104AA0004DF2191001F0CEFA02214DF21A1001F068
:104AB000C9FA01214DF21B1001F0C4FA02214DF296
:104AC0001C1001F0BFFA34214DF21D1001F0BAFAAA
:104AD00002214DF21E1001F0B5FA67214DF21F10B0
:104AE00001F0B0FA02214DF2201001F0ABFA84215E
:104AF0004DF2211001F0A6FA02214DF2221001F030
:104B0000A1FAA4214DF2231001F09CFA02214DF2EA
:104B1000241001F097FAB7214DF2251001F092FA16
:104B200002214DF2261001F08DFACF214DF227100F
:104B300001F088FA02214DF2281001F083FADE21FB
:104B40004DF2291001F07EFA02214DF22A1001F0F7
:104B500079FAF2214DF22B1001F074FA02214DF294
:104B60002C1001F06FFAFE214DF22D1001F06AFABF
:104B700003214DF22E1001F065FA10214DF22F1095
:104B800001F060FA03214DF2301001F05BFA33219D
:104B90004DF2311001F056FA03214DF2321001F0BE
:104BA00051FA6D214DF2331001F04CFA00214FF40F
:104BB000524001F047FA33214DF2012001F042FA50
:104BC00000214DF2022001F03DFA01E048E203200D
:104BD00034214DF2032001F035FA00214DF204207A
:104BE00001F030FA3A214DF2052001F02BFA0021B4
:104BF0004DF2062001F026FA4A214DF2072001F07D
:104C000021FA00214DF2082001F01CFA5C214DF23E
:104C1000092001F017FA00214DF20A2001F012FAE2
:104C200081214DF20B2001F00DFA00214DF20C20F4
:104C300001F008FAA6214DF20D2001F003FA00213F
:104C40004DF20E2001F0FEF9E5214DF20F2001F0AA
:104C5000F9F901214DF2102001F0F4F913214DF280
:104C6000112001F0EFF901214DF2122001F0EAF9D3
:104C700054214DF2132001F0E5F901214DF21420E9
:104C800001F0E0F982214DF2152001F0DBF901215C
:104C90004DF2162001F0D6F9CA214DF2172001F08D
:104CA000D1F902214DF2182001F0CCF900214DF28A
:104CB000192001F0C7F902214DF21A2001F0C2F9C2
:104CC00001214DF21B2001F0BDF902214DF21C2003
:104CD00001F0B8F934214DF21D2001F0B3F90221A1
:104CE0004DF21E2001F0AEF967214DF21F2001F0B8
:104CF000A9F902214DF2202001F0A4F984214DF2FE
:104D0000212001F09FF902214DF2222001F09AF9B1
:104D1000A4214DF2232001F095F902214DF2242027
:104D200001F090F9B7214DF2252001F08BF9022115
:104D30004DF2262001F086F9CF214DF2272001F017
:104D400081F902214DF2282001F07CF9DE214DF29B
:104D5000292001F077F902214DF22A2001F072F9A1
:104D6000F2214DF22B2001F06DF902214DF22C20A1
:104D700001F068F9FE214DF22D2001F063F90321C5
:104D80004DF22E2001F05EF910214DF22F2001F09E
:104D900059F903214DF2302001F054F933214DF23D
:104DA000312001F04FF903214DF2322001F04AF990
:104DB0006D214DF2332001F045F900214FF45340AD
:104DC00001F040F933214DF2013001F03BF90021AF
:104DD0004DF2023001F036F934214DF2033001F08A
:104DE00031F900214DF2043001F02CF93A214DF255
:104DF000053001F027F900214DF2063001F022F9CB
:104E00004A214DF2073001F01DF900214DF2083022
:104E100001F018F95C214DF2093001F013F900217D
:104E20004DF20A3001F00EF981214DF20B3001F004
:104E300009F900214DF20C3001F004F9A6214DF2E0
:104E40000D3001F0FFF800214DF20E3001F0FAF8BC
:104E5000E5214DF20F3001F0F5F801214DF210304F
:104E600001F0F0F813214DF2113001F0EBF80121BF
:104E70004DF2123001F0E6F854214DF2133001F0FA
:104E8000E1F801214DF2143001F0DCF882214DF2FD
:104E9000153001F0D7F801214DF2163001F0D2F8AB
:104EA000CA214DF2173001F0CDF802214DF2183031
:104EB00001F0C8F800214DF2193001F0C3F80221C9
:104EC0004DF21A3001F0BEF801214DF21B3001F015
:104ED000B9F802214DF21C3001F0B4F834214DF242
:104EE0001D3001F0AFF802214DF21E3001F0AAF89A
:104EF00067214DF21F3001F0A5F802214DF220305C
:104F000001F0A0F884214DF2213001F09BF802213C
:104F10004DF2223001F096F8A4214DF2233001F039
:104F200091F802214DF2243001F08CF8B7214DF2B6
:104F3000253001F087F802214DF2263001F082F889
:104F4000CF214DF2273001F07DF802214DF22830BB
:104F500001F078F8DE214DF2293001F073F80221DA
:104F60004DF22A3001F06EF8F2214DF22B3001F0B3
:104F700069F802214DF22C3001F064F8FE214DF267
:104F80002D3001F05FF803214DF22E3001F05AF878
:104F900010214DF22F3001F055F803214DF2303041
:104FA00001F050F833214DF2313001F04BF803217C
:104FB0004DF2323001F046F86D214DF2333001F000
:104FC00041F800214FF4544001F03CF833214DF2F8
:104FD000014001F037F800214DF2024001F032F8B3
:104FE00034214DF2034001F02DF800214DF2044030
:104FF00001F028F83A214DF2054001F023F8002194
:105000004DF2064001F01EF84A214DF2074001F032
:1050100019F800214DF2084001F014F85C214DF21E
:10502000094001F00FF800214DF20A4001F00AF8A2
:1050300081214DF20B4001F005F800214DF20C40AA
:1050400001F000F8A6214DF20D4000F0FBFF002119
:105050004DF20E4000F0F6FFE5214DF20F4000F05A
:10506000F1FF01214DF2104000F0ECFF13214DF251
:10507000114000F0E7FF01214DF2124000F0E2FF85
:1050800054214DF2134000F0DDFF01214DF2144098
:1050900000F0D8FF82214DF2154000F0D3FF01212E
:1050A0004DF2164000F0CEFFCA214DF2174000F03D
:1050B000C9FF02214DF2184000F0C4FF00214DF25B
:1050C000194000F0BFFF02214DF21A4000F0BAFF74
:1050D00001214DF21B4000F0B5FF00E003E3022187
:1050E0004DF21C4000F0AEFF34214DF21D4000F0A7
:1050F000A9FF02214DF21E4000F0A4FF67214DF2EE
:105100001F4000F09FFF02214DF2204000F09AFF67
:1051100084214DF2214000F095FF02214DF2224002
:1051200000F090FFA4214DF2234000F08BFF0221FC
:105130004DF2244000F086FFB7214DF2254000F0EB
:1051400081FF02214DF2264000F07CFFCF214DF27D
:10515000274000F077FF02214DF2284000F072FF57
:10516000DE214DF2294000F06DFF02214DF22A4070
:1051700000F068FFF2214DF22B4000F063FF0221A6
:105180004DF22C4000F05EFFFE214DF22D4000F06C
:1051900059FF03214DF22E4000F054FF10214DF233
:1051A0002F4000F04FFF03214DF2304000F04AFF46
:1051B00033214DF2314000F045FF03214DF23240E2
:1051C00000F040FF6D214DF2334000F03BFF002125
:1051D0004FF4554000F036FF33214DF2015000F0FE
:1051E00031FF00214DF2025000F02CFF34214DF22E
:1051F000035000F027FF00214DF2045000F022FF81
:105200003A214DF2055000F01DFF00214DF20650ED
:1052100000F018FF4A214DF2075000F013FF002163
:105220004DF2085000F00EFF5C214DF2095000F0E5
:1052300009FF00214DF20A5000F004FF81214DF2D8
:105240000B5000F0FFFE00214DF20C5000F0FAFE72
:10525000A6214DF20D5000F0F5FE00214DF20E504A
:1052600000F0F0FEE5214DF20F5000F0EBFE0121C1
:105270004DF2105000F0E6FE13214DF2115000F0F7
:10528000E1FE01214DF2125000F0DCFE54214DF2FE
:10529000135000F0D7FE01214DF2145000F0D2FE61
:1052A00082214DF2155000F0CDFE01214DF2165035
:1052B00000F0C8FECA214DF2175000F0C3FE0221D3
:1052C0004DF2185000F0BEFE00214DF2195000F0D2
:1052D000B9FE02214DF21A5000F0B4FE01214DF248
:1052E0001B5000F0AFFE02214DF21C5000F0AAFE50
:1052F00034214DF21D5000F0A5FE02214DF21E504A
:1053000000F0A0FE67214DF21F5000F09BFE02212D
:105310004DF2205000F096FE84214DF2215000F015
:1053200091FE02214DF2225000F08CFEA4214DF29C
:10533000235000F087FE02214DF2245000F082FE3F
:10534000B7214DF2255000F07DFE02214DF226508E
:1053500000F078FECF214DF2275000F073FE0221BD
:105360004DF2285000F06EFEDE214DF2295000F083
:1053700069FE02214DF22A5000F064FEF2214DF246
:105380002B5000F05FFE02214DF22C5000F05AFE2F
:10539000FE214DF22D5000F055FE03214DF22E500E
:1053A00000F050FE10214DF22F5000F04BFE032173
:1053B0004DF2305000F046FE33214DF2315000F0F6
:1053C00041FE03214DF2325000F03CFE6D214DF2C2
:1053D000335000F037FE00214FF4564000F032FE0B
:1053E00033214DF2016000F02DFE00214DF20260EC
:1053F00000F028FE34214DF2036000F023FE00216E
:105400004DF2046000F01EFE3A214DF2056000F0FE
:1054100019FE00214DF2066000F014FE4A214DF203
:10542000076000F00FFE00214DF2086000F00AFE58
:105430005C214DF2096000F005FE00214DF20A608A
:1054400000F000FE81214DF20B6000F0FBFD002119
:105450004DF20C6000F0F6FDA6214DF20D6000F05B
:10546000F1FD00214DF20E6000F0ECFDE5214DF262
:105470000F6000F0E7FD01214DF2106000F0E2FD49
:1054800013214DF2116000F0DDFD01214DF212609B
:1054900000F0D8FD54214DF2136000F0D3FD01213E
:1054A0004DF2146000F0CEFD82214DF2156000F047
:1054B000C9FD01214DF2166000F0C4FDCA214DF274
:1054C000176000F0BFFD02214DF2186000F0BAFD38
:1054D00000214DF2196000F0B5FD02214DF21A6075
:1054E00000F0B0FD01214DF21B6000F0ABFD022188
:1054F0004DF21C6000F0A6FD34214DF21D6000F05D
:10550000A1FD02214DF21E6000F09CFD67214DF2CD
:105510001F6000F097FD02214DF2206000F092FD27
:1055200084214DF2216000F08DFD02214DF22260B8
:1055300000F088FDA4214DF2236000F083FD0221DC
:105540004DF2246000F07EFDB7214DF2256000F0A1
:1055500079FD02214DF2266000F074FDCF214DF25D
:10556000276000F06FFD02214DF2286000F06AFD17
:10557000DE214DF2296000F065FD02214DF22A6026
:1055800000F060FDF2214DF22B6000F05BFD022186
:105590004DF22C6000F056FDFE214DF22D6000F022
:1055A00051FD03214DF22E6000F04CFD10214DF213
:1055B0002F6000F047FD03214DF2306000F042FD06
:1055C00033214DF2316000F03DFD03214DF2326098
:1055D00000F038FD6D214DF2336000F033FD5521B0
:1055E0004FF4704000F02EFDAA214FF2010000F0B0
:1055F00029FD52214FF2020000F024FD08214FF254
:10560000030000F01FFD00214FF2040000F01AFD1E
:10561000CC214FF4314000F015FD00214BF2011078
:1056200000F010FD05214FF4364000F00BFD702115
:105630004FF4374000F006FD70214BF2017000F08E
:1056400001FD01214FF4384000F0FCFC03214BF632
:10565000010000F0F7FC03214BF6020000F0F2FC21
:1056600003214BF6030000F0EDFC02214FF43C4017
:1056700000F0E8FC00214BF6014000F0E3FC0021C3
:105680004BF6024000F0DEFCD0214FF4494000F020
:10569000D9FC02214CF6011000F0D4FC50214CF64C
:1056A000021000F0CFFC50214CF6031000F0CAFCB1
:1056B00050214CF6041000F0C5FC00214FF454506A
:1056C00000F0C0FC55214FF4685000F0BBFC4FF4D3
:1056D000885000F0A1FC782002F0D6FB4FF4245053
:1056E00000F09AFCBDE08048808841F66311884252
:1056F000F8D1E22000F090FC1D2000F081FC022097
:1057000000F07EFC042000F07BFC642002F0BCFB77
:10571000E02000F081FC012000F072FC0A2002F081
:10572000A7FBE02000F078FC032000F069FC0C20CF
:1057300002F09EFB012000F06FFC0A2002F098FBB3
:10574000E62000F069FC2F2000F05AFCFF2000F05A
:1057500057FCFF2000F054FCB02000F05DFC20203E
:1057600000F04EFC002000F04BFC032000F048FC51
:1057700040F21F3000F044FC012000F041FC40F2F8
:10578000DF1000F03DFC002000F03AFCB42000F0F7
:1057900043FC042000F034FC40F21F4000F030FCD9
:1057A000002000F02DFC2E2000F02AFC002000F04C
:1057B00027FC002000F024FC002000F021FC002049
:1057C00000F01EFCB62000F027FC022000F018FCC0
:1057D0004FF4037000F014FC002000F011FC1720BF
:1057E00000F00EFC152000F00BFC002000F008FC7F
:1057F000002000F005FCF02000F00EFC032000F07B
:10580000FFFB292000F008FCD02000F005FC002060
:1058100000F0F6FBBE2000F0FFFB052000F0F0FBDF
:10582000FE2000F0EDFB012000F0EAFB002000F07C
:10583000E7FB002000F0E4FB002000F0E1FBB820D3
:1058400000F0EAFB032000F0DBFB012000F0D8FBB6
:10585000BA2000F0E1FB012000F0D2FB642000F050
:10586000A1F82148808849F24131884211D01E4870
:10587000808845F2103188420BD01B48808845F261
:105880001051884205D01848808841F6631188423B
:105890001CD11648006820F00F004FF02041C1F8DD
:1058A00004010846D0F8040120F47060C1F8040136
:1058B0000846D0F8040140F00500C1F8040108468C
:1058C000D0F8040140F4A060C1F804010120FDF704
:1058D0001DFC0122D1020648FCF734FB4FF6FF7095
:1058E000FDF7FAFB15B000BD48E20320040100A05B
:1058F000000C02401FB500BF1E48006820F4803035
:105900001C4908601B487030006820F001001949EC
:105910007031086000BF01208DF8000000208DF874
:1059200001004FF0C04001901B208DF808000020BE
:105930008DF809008DF80A0003208DF80B00002077
:105940008DF80C008DF80D008DF80E0001208DF8FB
:105950000F006846FCF732FB042040F00101054AC5
:10596000703211600349096841F48031014A1160C5
:1059700000BF1FBD24ED00E010B50246012000E08D
:1059800050430B1EA1F10104E1B2F9D110BD00009A
:1059900008B5034800880090BDF8000008BD00006D
:1059A0000000086000B50246BE2000F035FB05206F
:1059B00000F026FB00EE102AB8EE400B9FED0B1B0B
:1059C00020EE010BBCEEC00B10EE101A88B200F0F6
:1059D00017FB012000F014FBFF2000F011FB00205A
:1059E00000F00EFB002000F00BFB00BD6666666653
:1059F00066660440F0B50546002400279948807982
:105A0000012805D19748808841F66311884208D162
:105A100094488079F0B99348808841F663118842B0
:105A200018D1082D15D2DFE805F00406080A0C0E7F
:105A3000101206250DE007250BE0042509E00525D9
:105A400007E0012505E0002503E0032501E002252C
:105A500000BF00BF8348808849F24131884211D09D
:105A60008048808845F2103188420BD07D4880887C
:105A700045F21051884205D07A48808841F663117A
:105A800088427DD1082D1CD2DFE805F00406090C00
:105A90000F12151800BF14E044F0800411E044F028
:105AA00040040EE044F0C0040BE044F0200408E0A1
:105AB00044F0600405E044F0A00402E044F0E00497
:105AC00000BF00BF6748808845F21051884202D16C
:105AD0004FF4585700E036276248808845F210316D
